S017000041545F5472616E736D697474696F6E2E737265630D
S113000014C019C018C017C016C015C014C013C03E
S113001012C011C010C00FC00EC00DC00CC00BC068
S11300200AC009C008C007C006C011241FBECFED16
S1130030CDBF24D025C0E4CF80E886BD16BC1ABA53
S11300401BBA17BA9FE298BB90E491BB12BA10BED8
S113005013BE12BE16BE1CBE1FBC1EBC1DBC1CBCE7
S113006015BC14BC1BBC1ABC19BC18BC19BE15BEEB
S11300701BBE1DB81AB888B911B80895DDDFFFCFCB
S1070080F894FFCF1E
S9030000FC
