:060000008FC0FECFFDCF12
:10000600FCCFFBCFFACFF9CFF8CFF7CFF6CFF5CFAE
:10001600F4CFF3CFF2CFF1CFF0CFEFCFEECFEDCFDE
:10002600ECCFEBCF0632000000002060202020201D
:100036007000708810204080F800F8881038088812
:100046007000305090F810101000F880F008088802
:100056007000F08888F0A09088008888C8A89888E2
:1000660088002060202020207000708810204080AA
:10007600F800F888103808887000305090F8101092
:100086001000F880F00808887000F08888F0A090CA
:1000960088008888C8A898888800206020202020AA
:1000A6007000708810204080F800F88810380888A2
:1000B6007000305090F810101000F880F008088892
:1000C6007000F08888F0A09088008888C8A8988872
:1000D6008800FE00FE00020002002A000400D8008C
:1000E6002C0007008400680007008C0070000700E1
:1000F6009400780007009C0080000700A400880098
:100106000700AC0090000700B40098000100BC0096
:10011600D8000100BD00DA000000F894EE27ECBB21
:10012600E5BF8DE0A2E0ED938A95E9F780E8A0E6C9
:10013600ED938A95E9F7ECEDF0E0859195910097BE
:1001460061F0A591B59105901590BF01F00105905C
:100156000D920197E1F7FB01F0CFE0E0E3BBE4BBD2
:10016600E5BBE7EDEDBFC4E826C0E0E8E6BDE0E0AC
:10017600E6BDEABBEBBBE7BBEFE2E8BBE0E4E1BB15
:10018600E0E0E2BBE0BFE3BFE2BFE6BFECBFEFBD2E
:10019600EEBDEDBDECBDE5BDE4BDEBBDEABDE9BD23
:1001A600E8BDE9BFE5BFEBBFEDB9EAB9E0E8E8B9FC
:1001B600E0E0E1B90895D9DF81D005D0B2D0AAE058
:1001C600FDD0FCCFFFCFEFE0EA93A0E014D0EAE049
:1001D600EA93AFE010D0EBE0EA93A7E00CD0E9E0B9
:1001E600EA93A0E008D0ECE0EA93A1E004D0AFE007
:1001F6000ED0E6D00895F1D01A2F0A8159D0A02F3B
:1002060067D0A12F65D051D0EDD0239608951A93CB
:100216001A2FEAE0EA93E12FAE2FEDDF63C0DBD0C1
:100226000A2F10E014D01E2F20E030E02830E0E046
:100236003E0754F4E22FEF5FEA93E22FE10FA0812D
:10024600DADF2F5F3F4FF2CFCBD0249608951A9373
:100256001A2FE12FF0E0309711F4ECEA43C0E130B9
:10026600A0E0FA0711F4E4E83DC0E230A0E0FA07A6
:1002760011F4ECE837C0E330A0E0FA0711F4E4E942
:1002860031C0E430A0E0FA0711F4ECE92BC0E53008
:10029600A0E0FA0711F4E4EA25C0E630A0E0FA0788
:1002A60011F4E4EB1FC0E0E01DC08CD0E12903C0CF
:1002B60089D0E095E121A62FEC930895E7B3E06C91
:1002C600E7BBE8B3EF73E8BB8E9A969A6C9A0895EB
:1002D6001A931A2F1FB9769A769904C0EDB1EB617D
:1002E600EDB9FACF1991089578D000E010E000E05A
:1002F60010E00630E0E01E0784F466B3E02FA1E0CC
:10030600B0E07BD0A62FB0E0EA23FB23309711F4B0
:10031600E02F04C00F5F1F4FECCFEFEF099119914B
:100326000895E2DFE093BC00A091BD00EA1729F032
:10033600E091BE00EF5FE093BE00A091BE00A63044
:10034600E1F5E091BC00F0E0309721F439D041D0DE
:10035600A0E02BC0E130A0E0FA0721F431D039D07B
:10036600A1E023C0E230A0E0FA0721F429D031D081
:10037600A2E01BC0E330A0E0FA0721F421D029D087
:10038600A3E013C0E430A0E0FA0721F419D021D08D
:10039600A4E00BC0E530A0E0FA0721F411D019D093
:1003A600A5E003C00DD015D0A6E039DFE0E0E0936C
:1003B600BE00E091BC00E093BD000895B0E02EC001
:1003C600A7E02DCFE32D6E2F1080E22DA1E00DD0FA
:1003D6000895A5E0F3CF3A932A931A930A930895C2
:1003E6003B812A81198108810895EE230E2EEA2F7A
:1003F60019F0EE0F0A94E9F70895EE230E2EE8E0C1
:100406001E2EFD0151F0011420F0FE2FE0E0011830
:1004160021F0EE0FFF1F0A94E1F70895109639F0C8
:10042600A89580ED97E00197F1F71197C9F7089520
:00000001FF
