:0E00000090C0FECFFDCFFCCFFBCFFACFF9CFE3
:10000E00F8CFF7CFF6CFF5CFF4CFF3CFF2CFF1CFC6
:10001E00F0CFEFCFEECFEDCFECCFEBCF06322060AF
:10002E00202020207000708810204080F800F88872
:10003E00103808887000305090F810101000F880BA
:10004E00F00808887000F08888F0A09088008888F2
:10005E00C8A8988888002060202020207000708812
:10006E0010204080F800F888103808887000305052
:10007E0090F810101000F880F00808887000F088D2
:10008E0088F0A09088008888C8A89888880020608A
:10009E00202020207000708810204080F800F88802
:1000AE00103808887000305090F810101000F8804A
:1000BE00F00808887000F08888F0A0908800888882
:1000CE00C8A898888800060504132333444546378C
:1000DE002717FE00FE00020002002A00070086001D
:1000EE00640007008E006C00070096007400070085
:1000FE009E007C000700A60084000700AE008C0066
:10010E000700B60094000100C600E0000100C70021
:10011E00E2000000F894EE27ECBBE5BF8DE0A2E014
:10012E00ED938A95E9F780E8A0E6ED938A95E9F7D5
:10013E00E4EEF0E085919591009761F0A591B5916F
:10014E0005901590BF01F00105900D920197E1F712
:10015E00FB01F0CFE0E0E3BBE4BBE5BBEFEDEDBFB1
:10016E00C6E826C0E0E8E6BDE0E0E6BDEABBEBBBD4
:10017E00E7BBEFE2E8BBE0E4E1BBE0E0E2BBE0BFFF
:10018E00E3BFE2BFE6BFECBFEFBDEEBDEDBDECBD24
:10019E00E5BDE4BDEBBDEABDE9BDE8BDE9BFE5BF28
:1001AE00EBBFEDB9EAB9E0E8E8B9E0E0E1B90895EE
:1001BE00D9DF8FD005D06BD1AAE0D5D1FCCFFFCF40
:1001CE00EFE0D3D1EAE0EA93AFE00ED0EBE0EA93B2
:1001DE00A7E00AD0E9E0C9D1ECE0EA93A1E004D0AF
:1001EE00AFE00DD0C5D10895F2D11A2F0A816BD090
:1001FE00A02F79D0A12F77D063D0F0D1B2C11A93AE
:10020E001A2FEAE0EA93E12FAE2FEEDF76C0DDD1B2
:10021E000A2F10E027D01E2F20E030E02830E0E03B
:10022E003E0754F4E22FEF5FEA93E22FE10FA08135
:10023E00DBDF2F5F3F4FF2CF12C0C7D13A2F00E066
:10024E0010E00830E0E01E0754F4E02FEF5FEA9371
:10025E00E02FE30FA081C8DF0F5F1F4FF2CFBCD19D
:10026E00249608951A931A2FE12FF0E0309711F487
:10027E00EEEA43C0E130A0E0FA0711F4E6E83DC033
:10028E00E230A0E0FA0711F4EEE837C0E330A0E068
:10029E00FA0711F4E6E931C0E430A0E0FA0711F4F0
:1002AE00EEE92BC0E530A0E0FA0711F4E6EA25C02E
:1002BE00E630A0E0FA0711F4E6EB1FC0EEEB1DC02E
:1002CE0059D1E12903C056D1E095E121A62FEC9337
:1002DE000895E7B3E06CE7BBE8B3EF73E8BB8E9A23
:1002EE00969A6C9A08951A931A2F1FB9769A769940
:1002FE0004C0EDB1EB61EDB9FACF1991089567D154
:10030E0000E010E000E010E00630E0E01E0784F4AC
:10031E0066B3E02FA1E0B0E07DD1A62FB0E0EA23D6
:10032E00FB23309711F4E02F04C00F5F1F4FECCF6B
:10033E00EFEF099119910895609749D10A2FEC2F8B
:10034E00E65F1FD123D1173068F4EC2FE65FEA93F6
:10035E00EC2FED5F25D1AC2FA65F6FDFA0E503D1AB
:10036E001F5FF1CF3BD16296089564978CE060E0F9
:10037E00E4EDF0E036D127D15A2F30E020E0EC2F1B
:10038E00EE5E12D11A30C8F400E00C30A0F414D195
:10039E00E295EF70EF5F2E2F0FD1EF70A1E02AD113
:1003AE003E2F2A93A32F20DFA2E3DDD02A93A0E0D5
:1003BE001BDF0F5FEACF1F5FE5CFAC2FAE5E3DDFD9
:1003CE0009D16A9608956097FED05A2F30E820E042
:1003DE00EC2FE25FD6D0EC2FEA5FE6D0173090F527
:1003EE0000E0053068F5EC2FE25FEA93EC2FE95F51
:1003FE00D7D0003011F4232F0AC0E02FF0E0319750
:10040E00A1E0B0E007D1A0E4B0E015D12E0FAC2FE3
:10041E00A25FA10FEC91E223EC93E12FAC2FA25F30
:10042E00EA0F4E2F1080E02FA0E8ECD0E129A42F88
:10043E00EC93AC2FA25F01DFAEE195D00F5FD1CF71
:10044E001F5FCCCFAC2FAA5FF8DEC4D0669608959E
:10045E002897BDD00A2F9AD018303CF4E12FEF5FC9
:10046E0084D0A2E380D01F5FF7CF17E0103064F086
:10047E00E12FEF5FEA93AC2FAD5FA10FAC91B4DE2D
:10048E00A2E371D01150F2CFA9D02A96089537DF8A
:10049E00E093C600A091C700EA1729F0E091C800CA
:1004AE00EF5FE093C800A091C800A63009F03FC0EE
:1004BE00E091C600F0E0309729F45AD082D0A0E047
:1004CE003BDF2EC0E130A0E0FA0729F451D079D0FD
:1004DE00A1E04BDF25C0E230A0E0FA0721F448D0BE
:1004EE0070D0A2E01CC0E330A0E0FA0721F469D07E
:1004FE00A3E0AEDF15C0E430A0E0FA0721F438D057
:10050E0060D0A4E00CC0E530A0E0FA0729F430D0AA
:10051E0058D0A5E058DF04C02BD053D0A6E077DE2C
:10052E00E0E0E093C800E091C600E093C7000895B4
:10053E00AA938881882341F0BB27AA81FF27E981EE
:10054E0061916D938A95E1F7EA810BC0AA93A88118
:10055E00AA2331F0FF27EA8169816193AA95E9F711
:10056E00EA8123960895B0E079C0EA93A0E03CCEEC
:10057E00A7E04DCEE32D6E2F1080E22DA1E03AD0F4
:10058E000895EA93E0E0EA93A8E0E0CFEC2FEE5F67
:10059E00EA93A02F67DEEA93A8E0CADF10E0089581
:1005AE00EA93A12FAF5FC4CFEA93A52F5BDEEA9348
:1005BE00A8E0BEDF10E00895AC2FAA5FA00FEC916B
:1005CE000895A5E0D0CF5A934A933A932A931A935B
:1005DE000A9308955D814C813B812A81198108819E
:1005EE000895AF93A62FAC0F05900D928A95E1F763
:1005FE00AF910895EE230E2EEA2F19F0EE0F0A9406
:10060E00E9F70895EE230E2EEA2F19F0E6950A94D7
:10061E00E9F70895EE230E2EE8E01E2EFD0151F0AF
:10062E00011420F0FE2FE0E0011821F0EE0FFF1F65
:10063E000A94E1F708950024112490E1AA0FBB1F3C
:10064E00001C111C0E1A1F0A18F40E0E1F1E01C0DC
:10065E00A1609A9599F7FD01D0010895109639F091
:10066E00A89580ED97E00197F1F71197C9F70895D6
:00000001FF
