:0C0000008FC0FECFFDCFFCCFFBCFFACFAE
:10000C00F9CFF8CFF7CFF6CFF5CFF4CFF3CFF2CFC0
:10001C00F1CFF0CFEFCFEECFEDCFECCFEBCF063271
:10002C00000000002060202020207000708810202C
:10003C004080F800F888103808887000305090F82C
:10004C0010101000F880F00808887000F08888F014
:10005C00A09088008888C8A89888880020602020F4
:10006C0020207000708810204080F800F88810382C
:10007C0008887000305090F810101000F880F008CC
:10008C0008887000F08888F0A09088008888C8A83C
:10009C009888880020602020202070007088102014
:1000AC004080F800F888103808887000305090F8BC
:1000BC0010101000F880F00808887000F08888F0A4
:1000CC00A09088008888C8A898888800FE00FE0048
:1000DC00020002002A000400D8002C000700840053
:1000EC00680007008C00700007009400780007007F
:1000FC009C0080000700A40088000700AC00900062
:10010C000700B40098000100C400D8000100C5002D
:10011C00DA000000F894EE27ECBBE5BF8DE0A2E01E
:10012C00ED938A95E9F780E8A0E6ED938A95E9F7D7
:10013C00ECEDF0E085919591009761F0A591B5916A
:10014C0005901590BF01F00105900D920197E1F714
:10015C00FB01F0CFE0E0E3BBE4BBE5BBE7EDEDBFBB
:10016C00C4E826C0E0E8E6BDE0E0E6BDEABBEBBBD8
:10017C00E7BBEFE2E8BBE0E4E1BBE0E0E2BBE0BF01
:10018C00E3BFE2BFE6BFECBFEFBDEEBDEDBDECBD26
:10019C00E5BDE4BDEBBDEABDE9BDE8BDE9BFE5BF2A
:1001AC00EBBFEDB9EAB9E0E8E8B9E0E0E1B90895F0
:1001BC00D9DF8FD005D045D1AAE0ADD1FCCFFFCF90
:1001CC00EFE0ABD1EAE0EA93AFE00ED0EBE0EA93DC
:1001DC00A7E00AD0E9E0A1D1ECE0EA93A1E004D0D9
:1001EC00AFE00DD09DD10895BBD11A2F0A816BD0F1
:1001FC00A02F79D0A12F77D063D0B9D18AC11A930F
:10020C001A2FEAE0EA93E12FAE2FEEDF76C0A6D1EB
:10021C000A2F10E027D01E2F20E030E02830E0E03D
:10022C003E0754F4E22FEF5FEA93E22FE10FA08137
:10023C00DBDF2F5F3F4FF2CF12C090D13A2F00E09F
:10024C0010E00830E0E01E0754F4E02FEF5FEA9373
:10025C00E02FE30FA081C8DF0F5F1F4FF2CF85D1D6
:10026C00249608951A931A2FE12FF0E0309711F489
:10027C00ECEA43C0E130A0E0FA0711F4E4E83DC039
:10028C00E230A0E0FA0711F4ECE837C0E330A0E06C
:10029C00FA0711F4E4E931C0E430A0E0FA0711F4F4
:1002AC00ECE92BC0E530A0E0FA0711F4E4EA25C034
:1002BC00E630A0E0FA0711F4E4EB1FC0ECEB1DC034
:1002CC0031D1E12903C02ED1E095E121A62FEC9389
:1002DC000895E7B3E06CE7BBE8B3EF73E8BB8E9A25
:1002EC00969A6C9A08951A931A2F1FB9769A769942
:1002FC0004C0EDB1EB61EDB9FACF1991089530D18D
:10030C0000E010E000E010E00630E0E01E0784F4AE
:10031C0066B3E02FA1E0B0E03DD1A62FB0E0EA2318
:10032C00FB23309711F4E02F04C00F5F1F4FECCF6D
:10033C00EFEF099119910895609712D10A2FEC2FC4
:10034C00E65FF7D0FBD010E0173068F4EC2FE65FD7
:10035C00EA93EC2FED5FFAD0AC2FA65F6EDFA2E331
:10036C00DAD01F5FF1CF03D1629608956097F4D075
:10037C005A2F30E820E0EC2FE25FDBD0EC2FEA5F65
:10038C00EA93A52F6FDFEA93A8E0AAD010E017300C
:10039C0090F500E0053068F5EC2FE25FEA93EC2F66
:1003AC00E95FD4D0003011F4232F0AC0E02FF0E025
:1003BC003197A1E0B0E0EED0A0E4B0E0FCD02E0F7D
:1003CC00AC2FA25FA10FEC91E223EC93E12FAC2FA9
:1003DC00A25FEA0F4E2F1080E02FA0E8D3D0E129C6
:1003EC00A42FEC93AC2FA25F28DFAEE194D00F5F6B
:1003FC00D1CF1F5FCCCFAC2FAA5F1FDFB4D06696D6
:10040C0008952897ADD00A2F99D017E010303CF002
:10041C00E12FEF5F82D0A2E37ED01150F7CF10E036
:10042C00183064F4E12FEF5FEA93AC2FAD5FA10FAE
:10043C00AC91DADEA2E36FD01F5FF2CF98D02A9690
:10044C0008955DDFE093C400A091C500EA1729F080
:10045C00E091C600EF5FE093C600A091C600A63005
:10046C00F1F5E091C400F0E0309729F459D072D046
:10047C00A0E062DF2DC0E130A0E0FA0721F450D0FB
:10048C0069D0A1E024C0E230A0E0FA0721F448D002
:10049C0061D0A2E01CC0E330A0E0FA0721F45AD0EE
:1004AC00A3E0AFDF15C0E430A0E0FA0721F438D0A8
:1004BC0051D0A4E00CC0E530A0E0FA0729F430D00C
:1004CC0049D0A5E053DF04C02BD044D0A6E09FDE7A
:1004DC00E0E0E093C600E091C400E093C50008950D
:1004EC00AA938881882341F0BB27AA81FF27E98141
:1004FC0061916D938A95E1F7EA810BC0AA93A8816B
:10050C00AA2331F0FF27EA8169816193AA95E9F763
:10051C00EA8123960895B0E061C0EA93A0E064CE2E
:10052C00A7E075CEE32D6E2F1080E22DA1E022D036
:10053C000895EA93E0E0EA93A8E0E0CFEC2FEE5FB9
:10054C00EA93A02F8FDEEA93A8E0CACFEA93A12FFB
:10055C00AF5FC6CFA5E0DFCF5A934A933A932A9365
:10056C001A930A9308955D814C813B812A811981EC
:10057C0008810895EE230E2EEA2F19F0EE0F0A943F
:10058C00E9F70895EE230E2EEA2F19F0E6950A945A
:10059C00E9F70895EE230E2EE8E01E2EFD0151F032
:1005AC00011420F0FE2FE0E0011821F0EE0FFF1FE8
:1005BC000A94E1F708950024112490E1AA0FBB1FBF
:1005CC00001C111C0E1A1F0A18F40E0E1F1E01C05F
:1005DC00A1609A9599F7FD01D0010895109639F014
:1005EC00A89580ED97E00197F1F71197C9F7089559
:00000001FF
